{
  "contractName": "Certification",
  "abi": [
    {
      "inputs": [],
      "stateMutability": "nonpayable",
      "type": "constructor"
    },
    {
      "anonymous": false,
      "inputs": [
        {
          "indexed": false,
          "internalType": "uint256",
          "name": "_CertificateID",
          "type": "uint256"
        }
      ],
      "name": "certificateGenerated",
      "type": "event"
    },
    {
      "inputs": [
        {
          "internalType": "uint256",
          "name": "",
          "type": "uint256"
        }
      ],
      "name": "certificates",
      "outputs": [
        {
          "internalType": "uint256",
          "name": "RollNo",
          "type": "uint256"
        },
        {
          "internalType": "string",
          "name": "HashedValue",
          "type": "string"
        }
      ],
      "stateMutability": "view",
      "type": "function"
    },
    {
      "inputs": [
        {
          "internalType": "uint256",
          "name": "_RollNo",
          "type": "uint256"
        },
        {
          "internalType": "string",
          "name": "_HashedValue",
          "type": "string"
        }
      ],
      "name": "GenerateCertificate",
      "outputs": [],
      "stateMutability": "nonpayable",
      "type": "function"
    },
    {
      "inputs": [
        {
          "internalType": "uint256",
          "name": "_id",
          "type": "uint256"
        }
      ],
      "name": "RetrieveData",
      "outputs": [
        {
          "internalType": "uint256",
          "name": "",
          "type": "uint256"
        },
        {
          "internalType": "string",
          "name": "",
          "type": "string"
        }
      ],
      "stateMutability": "view",
      "type": "function"
    }
  ],
  "bytecode": "0x608060405234801561001057600080fd5b506108dc806100206000396000f3fe608060405234801561001057600080fd5b50600436106100415760003560e01c80635bed177214610046578063663b3e22146100775780637fb52c61146100a8575b600080fd5b610060600480360381019061005b9190610320565b6100c4565b60405161006e9291906103ec565b60405180910390f35b610091600480360381019061008c9190610320565b61019f565b60405161009f9291906103ec565b60405180910390f35b6100c260048036038101906100bd9190610551565b61024b565b005b600060606000839050600080600083815260200190815260200160002060405180604001604052908160008201548152602001600182018054610106906105dc565b80601f0160208091040260200160405190810160405280929190818152602001828054610132906105dc565b801561017f5780601f106101545761010080835404028352916020019161017f565b820191906000526020600020905b81548152906001019060200180831161016257829003601f168201915b505050505081525050905080600001518160200151935093505050915091565b60006020528060005260406000206000915090508060000154908060010180546101c8906105dc565b80601f01602080910402602001604051908101604052809291908181526020018280546101f4906105dc565b80156102415780601f1061021657610100808354040283529160200191610241565b820191906000526020600020905b81548152906001019060200180831161022457829003601f168201915b5050505050905082565b600082905060405180604001604052808481526020018381525060008083815260200190815260200160002060008201518160000155602082015181600101908161029691906107b9565b509050507f06b468c5e7d8daae84b7f9ed142d4077a408b6fa8b8d2b71a605ea7ebebac5fe816040516102c9919061088b565b60405180910390a1505050565b6000604051905090565b600080fd5b600080fd5b6000819050919050565b6102fd816102ea565b811461030857600080fd5b50565b60008135905061031a816102f4565b92915050565b600060208284031215610336576103356102e0565b5b60006103448482850161030b565b91505092915050565b610356816102ea565b82525050565b600081519050919050565b600082825260208201905092915050565b60005b8381101561039657808201518184015260208101905061037b565b60008484015250505050565b6000601f19601f8301169050919050565b60006103be8261035c565b6103c88185610367565b93506103d8818560208601610378565b6103e1816103a2565b840191505092915050565b6000604082019050610401600083018561034d565b818103602083015261041381846103b3565b90509392505050565b600080fd5b600080fd5b7f4e487b7100000000000000000000000000000000000000000000000000000000600052604160045260246000fd5b61045e826103a2565b810181811067ffffffffffffffff8211171561047d5761047c610426565b5b80604052505050565b60006104906102d6565b905061049c8282610455565b919050565b600067ffffffffffffffff8211156104bc576104bb610426565b5b6104c5826103a2565b9050602081019050919050565b82818337600083830152505050565b60006104f46104ef846104a1565b610486565b9050828152602081018484840111156105105761050f610421565b5b61051b8482856104d2565b509392505050565b600082601f8301126105385761053761041c565b5b81356105488482602086016104e1565b91505092915050565b60008060408385031215610568576105676102e0565b5b60006105768582860161030b565b925050602083013567ffffffffffffffff811115610597576105966102e5565b5b6105a385828601610523565b9150509250929050565b7f4e487b7100000000000000000000000000000000000000000000000000000000600052602260045260246000fd5b600060028204905060018216806105f457607f821691505b602082108103610607576106066105ad565b5b50919050565b60008190508160005260206000209050919050565b60006020601f8301049050919050565b600082821b905092915050565b60006008830261066f7fffffffffffffffffffffffffffffffffffffffffffffffffffffffffffffffff82610632565b6106798683610632565b95508019841693508086168417925050509392505050565b6000819050919050565b60006106b66106b16106ac846102ea565b610691565b6102ea565b9050919050565b6000819050919050565b6106d08361069b565b6106e46106dc826106bd565b84845461063f565b825550505050565b600090565b6106f96106ec565b6107048184846106c7565b505050565b5b818110156107285761071d6000826106f1565b60018101905061070a565b5050565b601f82111561076d5761073e8161060d565b61074784610622565b81016020851015610756578190505b61076a61076285610622565b830182610709565b50505b505050565b600082821c905092915050565b600061079060001984600802610772565b1980831691505092915050565b60006107a9838361077f565b9150826002028217905092915050565b6107c28261035c565b67ffffffffffffffff8111156107db576107da610426565b5b6107e582546105dc565b6107f082828561072c565b600060209050601f8311600181146108235760008415610811578287015190505b61081b858261079d565b865550610883565b601f1984166108318661060d565b60005b8281101561085957848901518255600182019150602085019450602081019050610834565b868310156108765784890151610872601f89168261077f565b8355505b6001600288020188555050505b505050505050565b60006020820190506108a0600083018461034d565b9291505056fea26469706673582212209483ab04a7569c78ef7835b83d1476d137c99e43cc744f69e101314e3b39c5ed64736f6c63430008110033",
  "immutableReferences": {},
  "source": "// SPDX-License-Identifier: MIT\npragma solidity >=0.4.22 <0.9.0;\n\ncontract Certification\n{\n    constructor() public {}\n    struct Certificate\n    {\n        uint RollNo;\n        string HashedValue;\n    }\n    mapping(uint=>Certificate) public certificates;\n    event certificateGenerated(uint _CertificateID);\n    function GenerateCertificate(uint _RollNo,string memory _HashedValue) public\n    {\n        uint Key = _RollNo;\n        certificates[Key] = Certificate(_RollNo,_HashedValue);\n        emit certificateGenerated(Key);\n    }\n    function RetrieveData(uint _id)public view returns(uint,string memory)\n    {\n        uint Key = _id;\n        Certificate memory retrieved = certificates[Key];\n        return (retrieved.RollNo,retrieved.HashedValue);\n    }\n \n}\n",
  "sourcePath": "C:\\Users\\Dell\\Desktop\\Web3 check\\contracts\\Certification.sol",
  "compiler": {
    "name": "solc",
    "version": "0.8.17+commit.8df45f5f.Emscripten.clang"
  },
  "schemaVersion": "3.4.10",
  "updatedAt": "2022-12-03T10:27:14.036Z",
  "devdoc": {
    "kind": "dev",
    "methods": {},
    "version": 1
  },
  "userdoc": {
    "kind": "user",
    "methods": {},
    "version": 1
  }
}